{
  "transactions": [
    {
      "hash": "0x2868395e76b9647382d85b13348afbb80a7b9a1e42fab47a7f7fd8714e658ec4",
      "transactionType": "CALL",
      "contractName": null,
      "contractAddress": "0x25203abbf8441ab856ef8fb0ab44eaa14ecbc79d",
      "function": "addAdmin(address)",
      "arguments": [
        "0x79d95785b0531Fde6876e66793499cA1E536394B"
      ],
      "transaction": {
        "from": "0x083eb744254768aeb40bdb05bb022e4f868970db",
        "to": "0x25203abbf8441ab856ef8fb0ab44eaa14ecbc79d",
        "gas": "0x10128",
        "value": "0x0",
        "input": "0x7048027500000000000000000000000079d95785b0531fde6876e66793499ca1e536394b",
        "nonce": "0xc1",
        "chainId": "0x89"
      },
      "additionalContracts": [],
      "isFixedGasLimit": false
    },
    {
      "hash": "0x1be01306c634e6cb26a4c9020b357f6e67a15aaf1777ff5b71a345a378169b39",
      "transactionType": "CALL",
      "contractName": null,
      "contractAddress": "0x4e1b5f65971c23219b89e69eb54696d49e8c4fe3",
      "function": "addAdmin(address)",
      "arguments": [
        "0x79d95785b0531Fde6876e66793499cA1E536394B"
      ],
      "transaction": {
        "from": "0x083eb744254768aeb40bdb05bb022e4f868970db",
        "to": "0x4e1b5f65971c23219b89e69eb54696d49e8c4fe3",
        "gas": "0x1120d",
        "value": "0x0",
        "input": "0x7048027500000000000000000000000079d95785b0531fde6876e66793499ca1e536394b",
        "nonce": "0xc2",
        "chainId": "0x89"
      },
      "additionalContracts": [],
      "isFixedGasLimit": false
    },
    {
      "hash": "0xd6c03a21e51ebc67d96b805e74d7ca0d985d5b3182c1b8a677492b0b019608dd",
      "transactionType": "CALL",
      "contractName": null,
      "contractAddress": "0x12864e7b7ef78137309ad370891a10b0af1e0baa",
      "function": "grantRole(bytes32,address)",
      "arguments": [
        "0x0000000000000000000000000000000000000000000000000000000000000000",
        "0x79d95785b0531Fde6876e66793499cA1E536394B"
      ],
      "transaction": {
        "from": "0x083eb744254768aeb40bdb05bb022e4f868970db",
        "to": "0x12864e7b7ef78137309ad370891a10b0af1e0baa",
        "gas": "0x12d87",
        "value": "0x0",
        "input": "0x2f2ff15d000000000000000000000000000000000000000000000000000000000000000000000000000000000000000079d95785b0531fde6876e66793499ca1e536394b",
        "nonce": "0xc3",
        "chainId": "0x89"
      },
      "additionalContracts": [],
      "isFixedGasLimit": false
    },
    {
      "hash": "0xfab6bd213c34fbba7ca0f879e0f5dbaf7fed305dddac96f06cbb477eee806bcb",
      "transactionType": "CALL",
      "contractName": null,
      "contractAddress": "0x25203abbf8441ab856ef8fb0ab44eaa14ecbc79d",
      "function": "addAdmin(address)",
      "arguments": [
        "0xc6F1cfA1b5840E5aFe56F7B7eF3c52c3bcDa06C5"
      ],
      "transaction": {
        "from": "0x083eb744254768aeb40bdb05bb022e4f868970db",
        "to": "0x25203abbf8441ab856ef8fb0ab44eaa14ecbc79d",
        "gas": "0x10128",
        "value": "0x0",
        "input": "0x70480275000000000000000000000000c6f1cfa1b5840e5afe56f7b7ef3c52c3bcda06c5",
        "nonce": "0xc4",
        "chainId": "0x89"
      },
      "additionalContracts": [],
      "isFixedGasLimit": false
    },
    {
      "hash": "0xb0ea8bd2b284a1e7a4a14b34dfdc611232a3589f884132e66ddfe893f0207c17",
      "transactionType": "CALL",
      "contractName": null,
      "contractAddress": "0x4e1b5f65971c23219b89e69eb54696d49e8c4fe3",
      "function": "addAdmin(address)",
      "arguments": [
        "0xc6F1cfA1b5840E5aFe56F7B7eF3c52c3bcDa06C5"
      ],
      "transaction": {
        "from": "0x083eb744254768aeb40bdb05bb022e4f868970db",
        "to": "0x4e1b5f65971c23219b89e69eb54696d49e8c4fe3",
        "gas": "0x1120d",
        "value": "0x0",
        "input": "0x70480275000000000000000000000000c6f1cfa1b5840e5afe56f7b7ef3c52c3bcda06c5",
        "nonce": "0xc5",
        "chainId": "0x89"
      },
      "additionalContracts": [],
      "isFixedGasLimit": false
    },
    {
      "hash": "0x571a9038027aa9a796e684be4c5ddac3f16619a3a68bc46e3c3fa306e1d4faf1",
      "transactionType": "CALL",
      "contractName": null,
      "contractAddress": "0x25203abbf8441ab856ef8fb0ab44eaa14ecbc79d",
      "function": "addAdmin(address)",
      "arguments": [
        "0x6E1864e4eBE1dAaEa8fDa6a7f9f96076b98dc547"
      ],
      "transaction": {
        "from": "0x083eb744254768aeb40bdb05bb022e4f868970db",
        "to": "0x25203abbf8441ab856ef8fb0ab44eaa14ecbc79d",
        "gas": "0x10128",
        "value": "0x0",
        "input": "0x704802750000000000000000000000006e1864e4ebe1daaea8fda6a7f9f96076b98dc547",
        "nonce": "0xc6",
        "chainId": "0x89"
      },
      "additionalContracts": [],
      "isFixedGasLimit": false
    },
    {
      "hash": "0x61d8b2a612159b591cd41b71a4ecc9b0e8bbc2f86ee314e54170f118792317e3",
      "transactionType": "CALL",
      "contractName": null,
      "contractAddress": "0x4e1b5f65971c23219b89e69eb54696d49e8c4fe3",
      "function": "addAdmin(address)",
      "arguments": [
        "0x6E1864e4eBE1dAaEa8fDa6a7f9f96076b98dc547"
      ],
      "transaction": {
        "from": "0x083eb744254768aeb40bdb05bb022e4f868970db",
        "to": "0x4e1b5f65971c23219b89e69eb54696d49e8c4fe3",
        "gas": "0x1120d",
        "value": "0x0",
        "input": "0x704802750000000000000000000000006e1864e4ebe1daaea8fda6a7f9f96076b98dc547",
        "nonce": "0xc7",
        "chainId": "0x89"
      },
      "additionalContracts": [],
      "isFixedGasLimit": false
    },
    {
      "hash": "0xf1b84a58a45ce503c576f3fe496dfc7a4c7bf08efa42cacd0adf07a339dad5c8",
      "transactionType": "CALL",
      "contractName": null,
      "contractAddress": "0x12864e7b7ef78137309ad370891a10b0af1e0baa",
      "function": "grantRole(bytes32,address)",
      "arguments": [
        "0x0000000000000000000000000000000000000000000000000000000000000000",
        "0x6E1864e4eBE1dAaEa8fDa6a7f9f96076b98dc547"
      ],
      "transaction": {
        "from": "0x083eb744254768aeb40bdb05bb022e4f868970db",
        "to": "0x12864e7b7ef78137309ad370891a10b0af1e0baa",
        "gas": "0x12d87",
        "value": "0x0",
        "input": "0x2f2ff15d00000000000000000000000000000000000000000000000000000000000000000000000000000000000000006e1864e4ebe1daaea8fda6a7f9f96076b98dc547",
        "nonce": "0xc8",
        "chainId": "0x89"
      },
      "additionalContracts": [],
      "isFixedGasLimit": false
    }
  ],
  "receipts": [
    {
      "status": "0x1",
      "cumulativeGasUsed": "0x29361ac",
      "logs": [
        {
          "address": "0x25203abbf8441ab856ef8fb0ab44eaa14ecbc79d",
          "topics": [
            "0xf9ffabca9c8276e99321725bcb43fb076a6c66a54b7f21c4e8146d8519b417dc",
            "0x000000000000000000000000083eb744254768aeb40bdb05bb022e4f868970db",
            "0x00000000000000000000000079d95785b0531fde6876e66793499ca1e536394b"
          ],
          "data": "0x",
          "blockHash": "0xd000d0d1f86f63cc50a1a63b96e739d47a347812c292a8f1a03762b304bfb768",
          "blockNumber": "0x50fb7f4",
          "blockTimestamp": "0x69cba00d",
          "transactionHash": "0xf1b84a58a45ce503c576f3fe496dfc7a4c7bf08efa42cacd0adf07a339dad5c8",
          "transactionIndex": "0xab",
          "logIndex": "0x8b4",
          "removed": false
        },
        {
          "address": "0x0000000000000000000000000000000000001010",
          "topics": [
            "0x4dfe1bbbcf077ddc3e01291eea2d5c70c2b422b415d95645b9adcfd678cb1d63",
            "0x0000000000000000000000000000000000000000000000000000000000001010",
            "0x000000000000000000000000083eb744254768aeb40bdb05bb022e4f868970db",
            "0x0000000000000000000000007ee41d8a25641000661b1ef5e6ae8a00400466b0"
          ],
          "data": "0x000000000000000000000000000000000000000000000000000e5fb14d12362a000000000000000000000000000000000000000000000006d6f9291695a4109e0000000000000000000000000000000000000000000ab7b672aad26ef43a0374000000000000000000000000000000000000000000000006d6eac9654891da740000000000000000000000000000000000000000000ab7b672b93220414c399e",
          "blockHash": "0xd000d0d1f86f63cc50a1a63b96e739d47a347812c292a8f1a03762b304bfb768",
          "blockNumber": "0x50fb7f4",
          "blockTimestamp": "0x69cba00d",
          "transactionHash": "0xf1b84a58a45ce503c576f3fe496dfc7a4c7bf08efa42cacd0adf07a339dad5c8",
          "transactionIndex": "0xab",
          "logIndex": "0x8b5",
          "removed": false
        }
      ],
      "logsBloom": "0x00000000000000000000000000000000000000000000000000000000000000000000000000000000000000000000000802008000000000000000000000000000000000000000000000000000000080800000000000000000000100000000000000000000000000000000008002200000000000000000000080000000000000000000000000000000020000000400000000000000000000000000000000000000200000000000000000000000000000000000080000000000000000000000004000000000000000000001000020000000400000400000010000100000000000000000010000000000000000000000000100000000000000000000000000100000",
      "type": "0x2",
      "transactionHash": "0xf1b84a58a45ce503c576f3fe496dfc7a4c7bf08efa42cacd0adf07a339dad5c8",
      "transactionIndex": "0xab",
      "blockHash": "0xd000d0d1f86f63cc50a1a63b96e739d47a347812c292a8f1a03762b304bfb768",
      "blockNumber": "0x50fb7f4",
      "gasUsed": "0xba2e",
      "effectiveGasPrice": "0x2b1e26ca6b",
      "from": "0x083eb744254768aeb40bdb05bb022e4f868970db",
      "to": "0x25203abbf8441ab856ef8fb0ab44eaa14ecbc79d",
      "contractAddress": null
    },
    {
      "status": "0x1",
      "cumulativeGasUsed": "0x2941d0f",
      "logs": [
        {
          "address": "0x4e1b5f65971c23219b89e69eb54696d49e8c4fe3",
          "topics": [
            "0x44d6d25963f097ad14f29f06854a01f575648a1ef82f30e562ccd3889717e339",
            "0x00000000000000000000000079d95785b0531fde6876e66793499ca1e536394b"
          ],
          "data": "0x",
          "blockHash": "0xd000d0d1f86f63cc50a1a63b96e739d47a347812c292a8f1a03762b304bfb768",
          "blockNumber": "0x50fb7f4",
          "blockTimestamp": "0x69cba00d",
          "transactionHash": "0x571a9038027aa9a796e684be4c5ddac3f16619a3a68bc46e3c3fa306e1d4faf1",
          "transactionIndex": "0xac",
          "logIndex": "0x8b6",
          "removed": false
        },
        {
          "address": "0x0000000000000000000000000000000000001010",
          "topics": [
            "0x4dfe1bbbcf077ddc3e01291eea2d5c70c2b422b415d95645b9adcfd678cb1d63",
            "0x0000000000000000000000000000000000000000000000000000000000001010",
            "0x000000000000000000000000083eb744254768aeb40bdb05bb022e4f868970db",
            "0x0000000000000000000000007ee41d8a25641000661b1ef5e6ae8a00400466b0"
          ],
          "data": "0x000000000000000000000000000000000000000000000000000e778c70595a39000000000000000000000000000000000000000000000006d6d9cd6efb99f3640000000000000000000000000000000000000000000ab7b672b93220414c399e000000000000000000000000000000000000000000000006d6cb55e28b40992b0000000000000000000000000000000000000000000ab7b672c7a9acb1a593d7",
          "blockHash": "0xd000d0d1f86f63cc50a1a63b96e739d47a347812c292a8f1a03762b304bfb768",
          "blockNumber": "0x50fb7f4",
          "blockTimestamp": "0x69cba00d",
          "transactionHash": "0x571a9038027aa9a796e684be4c5ddac3f16619a3a68bc46e3c3fa306e1d4faf1",
          "transactionIndex": "0xac",
          "logIndex": "0x8b7",
          "removed": false
        }
      ],
      "logsBloom": "0x00000000000000000000000000000000000000000000000000000000001000000000000000000000000000000000000002008000000000000000000000000000000000000000000000000000000000800000000000000000000100000000000000000000000000000000008002000000000000000000000080000000000000000000000004000000020000000400000000000000000000008000000000000000200000000000000000000000000000000000000000000020000000000000004000000000000000000001000020000000400000400000010000301000000000000000000000000000000000000000000000000000000000000000000000100000",
      "type": "0x2",
      "transactionHash": "0x571a9038027aa9a796e684be4c5ddac3f16619a3a68bc46e3c3fa306e1d4faf1",
      "transactionIndex": "0xac",
      "blockHash": "0xd000d0d1f86f63cc50a1a63b96e739d47a347812c292a8f1a03762b304bfb768",
      "blockNumber": "0x50fb7f4",
      "gasUsed": "0xbb63",
      "effectiveGasPrice": "0x2b1e26ca6b",
      "from": "0x083eb744254768aeb40bdb05bb022e4f868970db",
      "to": "0x4e1b5f65971c23219b89e69eb54696d49e8c4fe3",
      "contractAddress": null
    },
    {
      "status": "0x1",
      "cumulativeGasUsed": "0x294f75d",
      "logs": [
        {
          "address": "0x12864e7b7ef78137309ad370891a10b0af1e0baa",
          "topics": [
            "0x2f8788117e7eff1d82e926ec794901d17c78024a50270940304540a733656f0d",
            "0x0000000000000000000000000000000000000000000000000000000000000000",
            "0x00000000000000000000000079d95785b0531fde6876e66793499ca1e536394b",
            "0x000000000000000000000000083eb744254768aeb40bdb05bb022e4f868970db"
          ],
          "data": "0x",
          "blockHash": "0xd000d0d1f86f63cc50a1a63b96e739d47a347812c292a8f1a03762b304bfb768",
          "blockNumber": "0x50fb7f4",
          "blockTimestamp": "0x69cba00d",
          "transactionHash": "0x1be01306c634e6cb26a4c9020b357f6e67a15aaf1777ff5b71a345a378169b39",
          "transactionIndex": "0xad",
          "logIndex": "0x8b8",
          "removed": false
        },
        {
          "address": "0x0000000000000000000000000000000000001010",
          "topics": [
            "0x4dfe1bbbcf077ddc3e01291eea2d5c70c2b422b415d95645b9adcfd678cb1d63",
            "0x0000000000000000000000000000000000000000000000000000000000001010",
            "0x000000000000000000000000083eb744254768aeb40bdb05bb022e4f868970db",
            "0x0000000000000000000000007ee41d8a25641000661b1ef5e6ae8a00400466b0"
          ],
          "data": "0x0000000000000000000000000000000000000000000000000010da9e14fc2c8a000000000000000000000000000000000000000000000006d6ba3dbbfcbd83030000000000000000000000000000000000000000000ab7b672c7a9acb1a593d7000000000000000000000000000000000000000000000006d6a9631de7c156790000000000000000000000000000000000000000000ab7b672d8844ac6a1c061",
          "blockHash": "0xd000d0d1f86f63cc50a1a63b96e739d47a347812c292a8f1a03762b304bfb768",
          "blockNumber": "0x50fb7f4",
          "blockTimestamp": "0x69cba00d",
          "transactionHash": "0x1be01306c634e6cb26a4c9020b357f6e67a15aaf1777ff5b71a345a378169b39",
          "transactionIndex": "0xad",
          "logIndex": "0x8b9",
          "removed": false
        }
      ],
      "logsBloom": "0x00000004000000000000000000000000000000000000000000000000000000000000000000000000000000000000000002008000000000000000000000000000000000000000000000000000000000800000000000000000000100000000000000000000020000000000008002000800000000000000000080000000000000000000000000000000020000000400000000000000000000000000000000000000200000000000000000000000000000000000000000000000001400000000004000000000000000000001000020000000400000400000010100100000000020000000000000000000000000000000000000000100000000000000008000100000",
      "type": "0x2",
      "transactionHash": "0x1be01306c634e6cb26a4c9020b357f6e67a15aaf1777ff5b71a345a378169b39",
      "transactionIndex": "0xad",
      "blockHash": "0xd000d0d1f86f63cc50a1a63b96e739d47a347812c292a8f1a03762b304bfb768",
      "blockNumber": "0x50fb7f4",
      "gasUsed": "0xda4e",
      "effectiveGasPrice": "0x2b1e26ca6b",
      "from": "0x083eb744254768aeb40bdb05bb022e4f868970db",
      "to": "0x12864e7b7ef78137309ad370891a10b0af1e0baa",
      "contractAddress": null
    },
    {
      "status": "0x1",
      "cumulativeGasUsed": "0x295b18b",
      "logs": [
        {
          "address": "0x25203abbf8441ab856ef8fb0ab44eaa14ecbc79d",
          "topics": [
            "0xf9ffabca9c8276e99321725bcb43fb076a6c66a54b7f21c4e8146d8519b417dc",
            "0x000000000000000000000000083eb744254768aeb40bdb05bb022e4f868970db",
            "0x000000000000000000000000c6f1cfa1b5840e5afe56f7b7ef3c52c3bcda06c5"
          ],
          "data": "0x",
          "blockHash": "0xd000d0d1f86f63cc50a1a63b96e739d47a347812c292a8f1a03762b304bfb768",
          "blockNumber": "0x50fb7f4",
          "blockTimestamp": "0x69cba00d",
          "transactionHash": "0xd6c03a21e51ebc67d96b805e74d7ca0d985d5b3182c1b8a677492b0b019608dd",
          "transactionIndex": "0xae",
          "logIndex": "0x8ba",
          "removed": false
        },
        {
          "address": "0x0000000000000000000000000000000000001010",
          "topics": [
            "0x4dfe1bbbcf077ddc3e01291eea2d5c70c2b422b415d95645b9adcfd678cb1d63",
            "0x0000000000000000000000000000000000000000000000000000000000001010",
            "0x000000000000000000000000083eb744254768aeb40bdb05bb022e4f868970db",
            "0x0000000000000000000000007ee41d8a25641000661b1ef5e6ae8a00400466b0"
          ],
          "data": "0x000000000000000000000000000000000000000000000000000e5fb14d12362a000000000000000000000000000000000000000000000006d69578ebc48cb8690000000000000000000000000000000000000000000ab7b672d8844ac6a1c061000000000000000000000000000000000000000000000006d687193a777a823f0000000000000000000000000000000000000000000ab7b672e6e3fc13b3f68b",
          "blockHash": "0xd000d0d1f86f63cc50a1a63b96e739d47a347812c292a8f1a03762b304bfb768",
          "blockNumber": "0x50fb7f4",
          "blockTimestamp": "0x69cba00d",
          "transactionHash": "0xd6c03a21e51ebc67d96b805e74d7ca0d985d5b3182c1b8a677492b0b019608dd",
          "transactionIndex": "0xae",
          "logIndex": "0x8bb",
          "removed": false
        }
      ],
      "logsBloom": "0x00000000000000000000100000000000000000000000000000000000000000000000000000000000000800000000000800008000000000000000000000000000000000000000000000000000000080800000000000000000000100000000000000000000000000000000008002200000000000000000000080010000000000000000000000000000020000000400000000000000000000000000000000000000200000000000000000000000000000000000080000000000000000000000004000000000000000000001000000000000000000400000010000100000000000000000010000000000000000000000000100000000000000000000000000100000",
      "type": "0x2",
      "transactionHash": "0xd6c03a21e51ebc67d96b805e74d7ca0d985d5b3182c1b8a677492b0b019608dd",
      "transactionIndex": "0xae",
      "blockHash": "0xd000d0d1f86f63cc50a1a63b96e739d47a347812c292a8f1a03762b304bfb768",
      "blockNumber": "0x50fb7f4",
      "gasUsed": "0xba2e",
      "effectiveGasPrice": "0x2b1e26ca6b",
      "from": "0x083eb744254768aeb40bdb05bb022e4f868970db",
      "to": "0x25203abbf8441ab856ef8fb0ab44eaa14ecbc79d",
      "contractAddress": null
    },
    {
      "status": "0x1",
      "cumulativeGasUsed": "0x2966cee",
      "logs": [
        {
          "address": "0x4e1b5f65971c23219b89e69eb54696d49e8c4fe3",
          "topics": [
            "0x44d6d25963f097ad14f29f06854a01f575648a1ef82f30e562ccd3889717e339",
            "0x000000000000000000000000c6f1cfa1b5840e5afe56f7b7ef3c52c3bcda06c5"
          ],
          "data": "0x",
          "blockHash": "0xd000d0d1f86f63cc50a1a63b96e739d47a347812c292a8f1a03762b304bfb768",
          "blockNumber": "0x50fb7f4",
          "blockTimestamp": "0x69cba00d",
          "transactionHash": "0xfab6bd213c34fbba7ca0f879e0f5dbaf7fed305dddac96f06cbb477eee806bcb",
          "transactionIndex": "0xaf",
          "logIndex": "0x8bc",
          "removed": false
        },
        {
          "address": "0x0000000000000000000000000000000000001010",
          "topics": [
            "0x4dfe1bbbcf077ddc3e01291eea2d5c70c2b422b415d95645b9adcfd678cb1d63",
            "0x0000000000000000000000000000000000000000000000000000000000001010",
            "0x000000000000000000000000083eb744254768aeb40bdb05bb022e4f868970db",
            "0x0000000000000000000000007ee41d8a25641000661b1ef5e6ae8a00400466b0"
          ],
          "data": "0x000000000000000000000000000000000000000000000000000e778c70595a39000000000000000000000000000000000000000000000006d6761d442a829b2f0000000000000000000000000000000000000000000ab7b672e6e3fc13b3f68b000000000000000000000000000000000000000000000006d667a5b7ba2940f60000000000000000000000000000000000000000000ab7b672f55b88840d50c4",
          "blockHash": "0xd000d0d1f86f63cc50a1a63b96e739d47a347812c292a8f1a03762b304bfb768",
          "blockNumber": "0x50fb7f4",
          "blockTimestamp": "0x69cba00d",
          "transactionHash": "0xfab6bd213c34fbba7ca0f879e0f5dbaf7fed305dddac96f06cbb477eee806bcb",
          "transactionIndex": "0xaf",
          "logIndex": "0x8bd",
          "removed": false
        }
      ],
      "logsBloom": "0x00000000000000000000100000000000000000000000000000000000001000000000000000000000000800000000000000008000000000000000000000000000000000000000000000000000000000800000000000000000000100000000000000000000000000000000008002000000000000000000000080010000000000000000000004000000020000000400000000000000000000008000000000000000200000000000000000000000000000000000000000000020000000000000004000000000000000000001000000000000000000400000010000301000000000000000000000000000000000000000000000000000000000000000000000100000",
      "type": "0x2",
      "transactionHash": "0xfab6bd213c34fbba7ca0f879e0f5dbaf7fed305dddac96f06cbb477eee806bcb",
      "transactionIndex": "0xaf",
      "blockHash": "0xd000d0d1f86f63cc50a1a63b96e739d47a347812c292a8f1a03762b304bfb768",
      "blockNumber": "0x50fb7f4",
      "gasUsed": "0xbb63",
      "effectiveGasPrice": "0x2b1e26ca6b",
      "from": "0x083eb744254768aeb40bdb05bb022e4f868970db",
      "to": "0x4e1b5f65971c23219b89e69eb54696d49e8c4fe3",
      "contractAddress": null
    },
    {
      "status": "0x1",
      "cumulativeGasUsed": "0x297271c",
      "logs": [
        {
          "address": "0x25203abbf8441ab856ef8fb0ab44eaa14ecbc79d",
          "topics": [
            "0xf9ffabca9c8276e99321725bcb43fb076a6c66a54b7f21c4e8146d8519b417dc",
            "0x000000000000000000000000083eb744254768aeb40bdb05bb022e4f868970db",
            "0x0000000000000000000000006e1864e4ebe1daaea8fda6a7f9f96076b98dc547"
          ],
          "data": "0x",
          "blockHash": "0xd000d0d1f86f63cc50a1a63b96e739d47a347812c292a8f1a03762b304bfb768",
          "blockNumber": "0x50fb7f4",
          "blockTimestamp": "0x69cba00d",
          "transactionHash": "0x2868395e76b9647382d85b13348afbb80a7b9a1e42fab47a7f7fd8714e658ec4",
          "transactionIndex": "0xb0",
          "logIndex": "0x8be",
          "removed": false
        },
        {
          "address": "0x0000000000000000000000000000000000001010",
          "topics": [
            "0x4dfe1bbbcf077ddc3e01291eea2d5c70c2b422b415d95645b9adcfd678cb1d63",
            "0x0000000000000000000000000000000000000000000000000000000000001010",
            "0x000000000000000000000000083eb744254768aeb40bdb05bb022e4f868970db",
            "0x0000000000000000000000007ee41d8a25641000661b1ef5e6ae8a00400466b0"
          ],
          "data": "0x000000000000000000000000000000000000000000000000000e5fb14d12362a000000000000000000000000000000000000000000000006d6568d912ba62ace0000000000000000000000000000000000000000000ab7b672f55b88840d50c4000000000000000000000000000000000000000000000006d6482ddfde93f4a40000000000000000000000000000000000000000000ab7b67303bb39d11f86ee",
          "blockHash": "0xd000d0d1f86f63cc50a1a63b96e739d47a347812c292a8f1a03762b304bfb768",
          "blockNumber": "0x50fb7f4",
          "blockTimestamp": "0x69cba00d",
          "transactionHash": "0x2868395e76b9647382d85b13348afbb80a7b9a1e42fab47a7f7fd8714e658ec4",
          "transactionIndex": "0xb0",
          "logIndex": "0x8bf",
          "removed": false
        }
      ],
      "logsBloom": "0x00000000000000000000000000000000000000000000000000000000008000000000000000000000000000001000000800008000000000000000000000000000000000000000000000000000000080800000000000000000000100000000000000000000000000000000008002200000000000000000000080000000000000000000000000000000020000000400000000000000000000000000000000000000200000000000000000000000000000000000080000000000000000000000004000000000000000000001000000000000000000400000010000100002000000000000010000000000000000000000000100000000000000000000000000100000",
      "type": "0x2",
      "transactionHash": "0x2868395e76b9647382d85b13348afbb80a7b9a1e42fab47a7f7fd8714e658ec4",
      "transactionIndex": "0xb0",
      "blockHash": "0xd000d0d1f86f63cc50a1a63b96e739d47a347812c292a8f1a03762b304bfb768",
      "blockNumber": "0x50fb7f4",
      "gasUsed": "0xba2e",
      "effectiveGasPrice": "0x2b1e26ca6b",
      "from": "0x083eb744254768aeb40bdb05bb022e4f868970db",
      "to": "0x25203abbf8441ab856ef8fb0ab44eaa14ecbc79d",
      "contractAddress": null
    },
    {
      "status": "0x1",
      "cumulativeGasUsed": "0x297e27f",
      "logs": [
        {
          "address": "0x4e1b5f65971c23219b89e69eb54696d49e8c4fe3",
          "topics": [
            "0x44d6d25963f097ad14f29f06854a01f575648a1ef82f30e562ccd3889717e339",
            "0x0000000000000000000000006e1864e4ebe1daaea8fda6a7f9f96076b98dc547"
          ],
          "data": "0x",
          "blockHash": "0xd000d0d1f86f63cc50a1a63b96e739d47a347812c292a8f1a03762b304bfb768",
          "blockNumber": "0x50fb7f4",
          "blockTimestamp": "0x69cba00d",
          "transactionHash": "0x61d8b2a612159b591cd41b71a4ecc9b0e8bbc2f86ee314e54170f118792317e3",
          "transactionIndex": "0xb1",
          "logIndex": "0x8c0",
          "removed": false
        },
        {
          "address": "0x0000000000000000000000000000000000001010",
          "topics": [
            "0x4dfe1bbbcf077ddc3e01291eea2d5c70c2b422b415d95645b9adcfd678cb1d63",
            "0x0000000000000000000000000000000000000000000000000000000000001010",
            "0x000000000000000000000000083eb744254768aeb40bdb05bb022e4f868970db",
            "0x0000000000000000000000007ee41d8a25641000661b1ef5e6ae8a00400466b0"
          ],
          "data": "0x000000000000000000000000000000000000000000000000000e778c70595a39000000000000000000000000000000000000000000000006d63731e9919c0d940000000000000000000000000000000000000000000ab7b67303bb39d11f86ee000000000000000000000000000000000000000000000006d628ba5d2142b35b0000000000000000000000000000000000000000000ab7b6731232c64178e127",
          "blockHash": "0xd000d0d1f86f63cc50a1a63b96e739d47a347812c292a8f1a03762b304bfb768",
          "blockNumber": "0x50fb7f4",
          "blockTimestamp": "0x69cba00d",
          "transactionHash": "0x61d8b2a612159b591cd41b71a4ecc9b0e8bbc2f86ee314e54170f118792317e3",
          "transactionIndex": "0xb1",
          "logIndex": "0x8c1",
          "removed": false
        }
      ],
      "logsBloom": "0x00000000000000000000000000000000000000000000000000000000009000000000000000000000000000001000000000008000000000000000000000000000000000000000000000000000000000800000000000000000000100000000000000000000000000000000008002000000000000000000000080000000000000000000000004000000020000000400000000000000000000008000000000000000200000000000000000000000000000000000000000000020000000000000004000000000000000000001000000000000000000400000010000301002000000000000000000000000000000000000000000000000000000000000000000100000",
      "type": "0x2",
      "transactionHash": "0x61d8b2a612159b591cd41b71a4ecc9b0e8bbc2f86ee314e54170f118792317e3",
      "transactionIndex": "0xb1",
      "blockHash": "0xd000d0d1f86f63cc50a1a63b96e739d47a347812c292a8f1a03762b304bfb768",
      "blockNumber": "0x50fb7f4",
      "gasUsed": "0xbb63",
      "effectiveGasPrice": "0x2b1e26ca6b",
      "from": "0x083eb744254768aeb40bdb05bb022e4f868970db",
      "to": "0x4e1b5f65971c23219b89e69eb54696d49e8c4fe3",
      "contractAddress": null
    },
    {
      "status": "0x1",
      "cumulativeGasUsed": "0x298bccd",
      "logs": [
        {
          "address": "0x12864e7b7ef78137309ad370891a10b0af1e0baa",
          "topics": [
            "0x2f8788117e7eff1d82e926ec794901d17c78024a50270940304540a733656f0d",
            "0x0000000000000000000000000000000000000000000000000000000000000000",
            "0x0000000000000000000000006e1864e4ebe1daaea8fda6a7f9f96076b98dc547",
            "0x000000000000000000000000083eb744254768aeb40bdb05bb022e4f868970db"
          ],
          "data": "0x",
          "blockHash": "0xd000d0d1f86f63cc50a1a63b96e739d47a347812c292a8f1a03762b304bfb768",
          "blockNumber": "0x50fb7f4",
          "blockTimestamp": "0x69cba00d",
          "transactionHash": "0xb0ea8bd2b284a1e7a4a14b34dfdc611232a3589f884132e66ddfe893f0207c17",
          "transactionIndex": "0xb2",
          "logIndex": "0x8c2",
          "removed": false
        },
        {
          "address": "0x0000000000000000000000000000000000001010",
          "topics": [
            "0x4dfe1bbbcf077ddc3e01291eea2d5c70c2b422b415d95645b9adcfd678cb1d63",
            "0x0000000000000000000000000000000000000000000000000000000000001010",
            "0x000000000000000000000000083eb744254768aeb40bdb05bb022e4f868970db",
            "0x0000000000000000000000007ee41d8a25641000661b1ef5e6ae8a00400466b0"
          ],
          "data": "0x0000000000000000000000000000000000000000000000000010da9e14fc2c8a000000000000000000000000000000000000000000000006d617a23692bf9d330000000000000000000000000000000000000000000ab7b6731232c64178e127000000000000000000000000000000000000000000000006d606c7987dc370a90000000000000000000000000000000000000000000ab7b673230d6456750db1",
          "blockHash": "0xd000d0d1f86f63cc50a1a63b96e739d47a347812c292a8f1a03762b304bfb768",
          "blockNumber": "0x50fb7f4",
          "blockTimestamp": "0x69cba00d",
          "transactionHash": "0xb0ea8bd2b284a1e7a4a14b34dfdc611232a3589f884132e66ddfe893f0207c17",
          "transactionIndex": "0xb2",
          "logIndex": "0x8c3",
          "removed": false
        }
      ],
      "logsBloom": "0x00000004000000000000000000000000000000000000000000000000008000000000000000000000000000001000000000008000000000000000000000000000000000000000000000000000000000800000000000000000000100000000000000000000020000000000008002000800000000000000000080000000000000000000000000000000020000000400000000000000000000000000000000000000200000000000000000000000000000000000000000000000001400000000004000000000000000000001000000000000000000400000010100100002000020000000000000000000000000000000000000000100000000000000008000100000",
      "type": "0x2",
      "transactionHash": "0xb0ea8bd2b284a1e7a4a14b34dfdc611232a3589f884132e66ddfe893f0207c17",
      "transactionIndex": "0xb2",
      "blockHash": "0xd000d0d1f86f63cc50a1a63b96e739d47a347812c292a8f1a03762b304bfb768",
      "blockNumber": "0x50fb7f4",
      "gasUsed": "0xda4e",
      "effectiveGasPrice": "0x2b1e26ca6b",
      "from": "0x083eb744254768aeb40bdb05bb022e4f868970db",
      "to": "0x12864e7b7ef78137309ad370891a10b0af1e0baa",
      "contractAddress": null
    }
  ],
  "libraries": [],
  "pending": [],
  "returns": {},
  "timestamp": 1774952462130,
  "chain": 137,
  "commit": "b7a9741"
}